S014000070486D657465725F636F64652E7372656341
S11300000C9434000C9449000C9449000C9449005D
S11300100C9449000C9449000C9449000C94490038
S11300200C9449000C9449000C9449000C94490028
S11300300C9449000C9449000C9449000C94490018
S11300400C9449000C9449000C9449000C94490008
S11300500C9449000C9449000C9449000C944900F8
S11300600C9449000C94490011241FBECFEFD8E032
S1130070DEBFCDBF11E0A0E0B1E0E8E7F9E002C0E7
S113008005900D92A231B107D9F70E94B3020C94E6
S1130090BA040C940000672B09F050C08A30910513
S11300A011F4289808958B30910511F42998089536
S11300B08C30910511F42A9808958D30910511F42E
S11300C02B9808958E30910511F42C9808958F3053
S11300D0910511F42D9808958031910511F42E980D
S11300E008958131910511F42F9808958E31910569
S11300F011F4589808958F31910511F45998089581
S11301008032910511F45A9808958132910511F4C1
S11301105B9808958232910511F45C9808958332B6
S1130120910511F45D9808958432910511F45E9857
S11301300895859709F050C05F9808958A30910515
S113014011F4289A08958B30910511F4299A089591
S11301508C30910511F42A9A08958D30910511F48B
S11301602B9A08958E30910511F42C9A08958F30AE
S1130170910511F42D9A08958031910511F42E9A68
S113018008958131910511F42F9A08958E319105C6
S113019011F4589A08958F31910511F4599A0895DC
S11301A08032910511F45A9A08958132910511F41F
S11301B05B9A08958232910511F45C9A0895833212
S11301C0910511F45D9A08958432910511F45E9AB3
S11301D00895859709F45F9A0895CF93C82F80FFF7
S11301E007C061E070E085E290E00E944B0006C029
S11301F060E070E085E290E00E944B00C1FF07C020
S113020061E070E084E290E00E944B0006C060E090
S113021070E084E290E00E944B00C2FF07C061E0FE
S113022070E083E290E00E944B0006C060E070E062
S113023083E290E00E944B00C3FF07C061E070E0DE
S113024082E290E00E944B0006C060E070E082E22F
S113025090E00E944B00C4FF07C061E070E081E2BF
S113026090E00E944B0006C060E070E081E290E004
S11302700E944B00C5FF07C061E070E080E290E09F
S11302800E944B0006C060E070E080E290E00E94B3
S11302904B00C6FF07C061E070E08FE190E00E9470
S11302A04B0006C060E070E08FE190E00E944B00DC
S11302B0CC233CF461E070E08EE190E00E944B00BE
S11302C006C060E070E08EE190E00E944B00CF91A8
S11302D00895CF93C82F60E070E08BE090E00E9417
S11302E04B008C2F0E94ED0061E070E08AE090E00A
S11302F00E944B008FE99FE00197F1F700C00000D6
S113030060E070E08AE090E00E944B008FE99FE09B
S11303100197F1F700C00000CF91089560E070E00C
S11303208BE090E00E944B0060E070E08AE090E097
S11303300E944B002FEF89EF90E0215080409040C5
S1130340E1F700C0000080E30E9469018FE19EE4B0
S11303500197F1F700C0000080E30E9469018FE972
S11303609FE00197F1F700C0000080E30E9469015B
S11303708FE39CE90197F1F700C0000088E30E9435
S113038069018CE00E94690181E00E94690186E0B4
S11303900E9469010895CF93C82F61E070E08BE05B
S11303A090E00E944B008C2F0E94ED0061E070E011
S11303B08AE090E00E944B008FE99FE00197F1F7FB
S11303C000C0000060E070E08AE090E00E944B0012
S11303D08FE99FE00197F1F700C00000CF910895E5
S11303E0CF93DF93EC018881882331F021960E941A
S11303F0CB0189918111FBCFDF91CF9108954F9269
S11304005F926F927F928F929F92AF92BF92EF9280
S1130410FF920F931F93CF93DF9300D000D0CDB7FB
S1130420DEB72B013C010E9454034B015C0120E028
S113043030E040E251E4C301B2010E9418040E947A
S1130440540326EFA40124038001259F100D1124D9
S1130450060F171F5AE0851691041CF480E20E94CF
S1130460CB014AE0BE016F5F7F4FC4010E94850447
S1130470CE0101960E94F0018CE20E94CB014AE079
S1130480BE016D5F7F4FC8010E948504CE010396B3
S11304900E94F0010F900F900F900F90DF91CF9179
S11304A01F910F91FF90EF90BF90AF909F908F900E
S11304B07F906F905F904F900895EAE7F0E080811D
S11304C087608083808180688083ECE7F0E08081AE
S11304D0806C80830895DC01ECE7F0E08081808308
S11304E0EAE7F0E0908190649083908196FDFDCFDF
S11304F080917800909179008D939C930895EF9268
S1130500FF920F931F93CF93DF9300D0CDB7DEB745
S11305101A82198202E310E0E12CF12CCE0101963B
S11305200E946B0289819A81E80EF91E015011091B
S1130530A9F7B70180E090E00E948A0320E030E050
S113054040E651E40E94180420E03EEC47E457E4FE
S11305500E94E2020F900F90DF91CF911F910F91B3
S1130560FF90EF900895CF93DF9300D000D0CDB7E4
S1130570DEB78FEF8AB984B90E948E010E945D02B2
S113058080E80E94690180E091E00E94F00180EC23
S11305900E9469018DE091E00E94F00184EC0E94C8
S11305A069010E947F02AE014F5F5F4F0E94FF010D
S11305B02FEF80E792E0215080409040E1F700C0A7
S11305C00000ECCF0E94F6020C94DE030E94D703D5
S11305D058F00E94D00340F029F45F3F29F00C94B6
S11305E0C70351110C9412040C94CD030E94EF0321
S11305F068F39923B1F3552391F3951B550BBB274E
S1130600AA2762177307840738F09F5F5F4F220F92
S1130610331F441FAA1FA9F335D00E2E3AF0E0E889
S113062032D091505040E695001CCAF72BD0FE2FD3
S113063029D0660F771F881FBB1F26173707480767
S1130640AB07B0E809F0BB0B802DBF01FF2793581F
S11306505F4F3AF09E3F510578F00C94C7030C9419
S113066012045F3FE4F3983ED4F38695779567953B
S1130670B795F7959F5FC9F7880F911D9695879554
S113068097F90895E1E0660F771F881FBB1F621773
S113069073078407BA0720F0621B730B840BBA0B31
S11306A0EE1F88F7E09508950E945B036894B111EA
S11306B00C94120408950E94F70388F09F5798F051
S11306C0B92F9927B751B0F0E1F0660F771F881F53
S11306D0991F1AF0BA95C9F714C0B13091F00E946D
S11306E01104B1E008950C941104672F782F882722
S11306F0B85F39F0B93FCCF3869577956795B39594
S1130700D9F73EF490958095709561957F4F8F4F02
S11307109F4F0895E89409C097FB3EF49095809507
S1130720709561957F4F8F4F9F4F9923A9F0F92FB3
S113073096E9BB279395F695879577956795B79531
S1130740F111F8CFFAF4BB0F11F460FF1BC06F5F17
S11307507F4F8F4F9F4F16C0882311F096E911C029
S1130760772321F09EE8872F762F05C0662371F04A
S113077096E8862F70E060E02AF09A95660F771F5E
S1130780881FDAF7880F9695879597F9089597F952
S11307909F6780E870E060E008959FEF80EC089523
S11307A000240A941616170618060906089500244C
S11307B00A9412161306140605060895092E0394C6
S11307C0000C11F4882352F0BB0F40F4BF2B11F43A
S11307D060FF04C06F5F7F4F8F4F9F4F089557FD99
S11307E09058440F551F59F05F3F71F04795880F9B
S11307F097FB991F61F09F3F79F087950895121632
S113080013061406551FF2CF4695F1DF08C01616DD
S113081017061806991FF1CF86957105610508948E
S11308200895E894BB2766277727CB0197F90895A5
S11308300E942B040C94DE030E94D00338F00E9423
S1130840D70320F0952311F00C94C7030C94CD0327
S113085011240C9412040E94EF0370F3959FC1F3CA
S1130860950F50E0551F629FF001729FBB27F00D5A
S1130870B11D639FAA27F00DB11DAA1F649F6627AF
S1130880B00DA11D661F829F2227B00DA11D621FFE
S1130890739FB00DA11D621F839FA00D611D221FB8
S11308A0749F3327A00D611D231F849F600D211D9C
S11308B0822F762F6A2F11249F5750409AF0F1F01F
S11308C088234AF0EE0FFF1FBB1F661F771F881F88
S11308D091505040A9F79E3F510580F00C94C703F6
S11308E00C9412045F3FE4F3983ED4F38695779515
S11308F06795B795F795E7959F5FC1F7FE2B880F2E
S1130900911D9695879597F90895BB274A3031F440
S1130910992322F4BDE2909581959F4F0C94910404
S1130920BB27FB015527AA27880F991FAA1FA417C5
S113093010F0A41B83955051B9F7A05DAA3308F0B9
S1130940A95DA193009779F7B111B1931192CB01ED
S11309500C94AA04DC01FC01672F71917723E1F761
S1130960329704C07C916D9370836291AE17BF0778
S10B0970C8F30895F894FFCFC9
S113097870684D657465722056312E300070483A9F
S1050988200049
S9030000FC
