S014000070486D657465725F636F64652E7372656341
S11300000C9434000C9449000C9449000C9449005D
S11300100C9449000C9449000C9449000C94490038
S11300200C9449000C9449000C9449000C94490028
S11300300C9449000C9449000C9449000C94490018
S11300400C9449000C9449000C9449000C94490008
S11300500C9449000C9449000C9449000C944900F8
S11300600C9449000C94490011241FBECFEFD8E032
S1130070DEBFCDBF11E0A0E0B1E0E2ECFAE002C0E7
S113008005900D92AE30B107D9F70E94BC020C94D2
S11300905F050C940000672B09F050C08A3091056D
S11300A011F4289808958B30910511F42998089536
S11300B08C30910511F42A9808958D30910511F42E
S11300C02B9808958E30910511F42C9808958F3053
S11300D0910511F42D9808958031910511F42E980D
S11300E008958131910511F42F9808958E31910569
S11300F011F4589808958F31910511F45998089581
S11301008032910511F45A9808958132910511F4C1
S11301105B9808958232910511F45C9808958332B6
S1130120910511F45D9808958432910511F45E9857
S11301300895859709F050C05F9808958A30910515
S113014011F4289A08958B30910511F4299A089591
S11301508C30910511F42A9A08958D30910511F48B
S11301602B9A08958E30910511F42C9A08958F30AE
S1130170910511F42D9A08958031910511F42E9A68
S113018008958131910511F42F9A08958E319105C6
S113019011F4589A08958F31910511F4599A0895DC
S11301A08032910511F45A9A08958132910511F41F
S11301B05B9A08958232910511F45C9A0895833212
S11301C0910511F45D9A08958432910511F45E9AB3
S11301D00895859709F45F9A0895CF93C82F80FFF7
S11301E007C061E070E08EE190E00E944B0006C021
S11301F060E070E08EE190E00E944B00C1FF07C018
S113020061E070E08FE190E00E944B0006C060E086
S113021070E08FE190E00E944B00C2FF07C061E0F4
S113022070E080E290E00E944B0006C060E070E065
S113023080E290E00E944B00C3FF07C061E070E0E1
S113024081E290E00E944B0006C060E070E081E231
S113025090E00E944B00C4FF07C061E070E082E2BE
S113026090E00E944B0006C060E070E082E290E003
S11302700E944B00C5FF07C061E070E083E290E09C
S11302800E944B0006C060E070E083E290E00E94B0
S11302904B00C6FF07C061E070E084E290E00E947A
S11302A04B0006C060E070E084E290E00E944B00E6
S11302B0CC233CF461E070E085E290E00E944B00C6
S11302C006C060E070E085E290E00E944B00CF91B0
S11302D00895CF93C82F60E070E08BE090E00E9417
S11302E04B008C2F0E94ED0061E070E08AE090E00A
S11302F00E944B008FE99FE00197F1F700C00000D6
S113030060E070E08AE090E00E944B008FE99FE09B
S11303100197F1F700C00000CF91089560E070E00C
S11303208BE090E00E944B0060E070E08AE090E097
S11303300E944B002FEF89EF90E0215080409040C5
S1130340E1F700C0000080E30E9469018FE19EE4B0
S11303500197F1F700C0000080E30E9469018FE972
S11303609FE00197F1F700C0000080E30E9469015B
S11303708FE39CE90197F1F700C0000088E30E9435
S113038069018CE00E94690181E00E94690186E0B4
S11303900E9469010895CF93C82F61E070E08BE05B
S11303A090E00E944B008C2F0E94ED0061E070E011
S11303B08AE090E00E944B008FE99FE00197F1F7FB
S11303C000C0000060E070E08AE090E00E944B0012
S11303D08FE99FE00197F1F700C00000CF910895E5
S11303E0CF93DF93EC018881882331F021960E941A
S11303F0CB0189918111FBCFDF91CF9108958F9229
S11304009F92AF92BF92CF92DF92EF92FF920F939F
S11304101F93CF93DF9300D0CDB7DEB74B015C01C0
S11304208A0120E030E040E251E40E945303882333
S11304302CF480E390E0F8019183808320E030E0A5
S113044048EC52E4C501B4010E94B2046B017C0182
S1130450C501B4010E94CA0324E6269FA001279F78
S1130460500D1124BA01550F880B990B0E940204F8
S11304709B01AC01C701B6010E94E6020E94CA03B7
S1130480DC01CB014AE0BE016F5F7F4F0E942A0569
S1130490F80101900020E9F731978CE290E0918314
S11304A08083BE016F5F7F4FC8010E941F050F90BC
S11304B00F90DF91CF911F910F91FF90EF90DF90FC
S11304C0CF90BF90AF909F908F900895EAE7F0E0AF
S11304D0808187608083808180688083ECE7F0E09E
S11304E08081806C80830895DC01ECE7F0E08081FA
S11304F08083EAE7F0E0908190649083908196FD98
S1130500FDCF80917800909179008D939C9308950C
S1130510EF92FF920F931F93CF93DF9300D0CDB749
S1130520DEB71A82198202E310E0E12CF12CCE012D
S113053001960E94740289819A81E80EF91E015085
S11305401109A9F7B70180E090E00E94000420E0BF
S113055030E048E452E40E9458032EE038E340E6D9
S11305605CE30E94B2040F900F90DF91CF911F9132
S11305700F91FF90EF900895CF93DF9300D000D0B8
S11305801F92CDB7DEB78FEF8AB984B90E948E016E
S11305900E94660280E80E94690180E091E00E9466
S11305A0F00180EC0E9469010E948802AE014F5F55
S11305B05F4F0E94FF01CE0101960E94F0018FE37C
S11305C09CE90197F1F700C00000E4CF5058BB2725
S11305D0AA270E94FE020C9478040E946A0438F050
S11305E00E94710420F039F49F3F19F426F40C940E
S11305F067040EF4E095E7FB0C946104E92F0E9474
S1130600890458F3BA17620773078407950720F023
S113061079F4A6F50C94AB040EF4E0950B2EBA2FE6
S1130620A02D0B01B90190010C01CA01A0011124F4
S1130630FF27591B99F0593F50F4503E68F11A16A0
S1130640F040A22F232F342F4427585FF3CF469531
S113065037952795A795F0405395C9F77EF41F1653
S1130660BA0B620B730B840BBAF09150A1F0FF0F1D
S1130670BB1F661F771F881FC2F70EC0BA0F621F09
S1130680731F841F48F4879577956795B795F795F9
S11306909E3F08F0B0CF9395880F08F09927EE0F8E
S11306A09795879508950E943D0408F481E0089584
S11306B00E946C030C9478040E94710458F00E9408
S11306C06A0440F029F45F3F29F00C94610451114D
S11306D00C94AC040C9467040E94890468F3992375
S11306E0B1F3552391F3951B550BBB27AA2762172A
S11306F07307840738F09F5F5F4F220F331F441F37
S1130700AA1FA9F335D00E2E3AF0E0E832D091506A
S11307105040E695001CCAF72BD0FE2F29D0660F57
S1130720771F881FBB1F261737074807AB07B0E89A
S113073009F0BB0B802DBF01FF2793585F4F3AF0A0
S11307409E3F510578F00C9461040C94AC045F3F17
S1130750E4F3983ED4F3869577956795B795F79526
S11307609F5FC9F7880F911D9695879597F908950E
S1130770E1E0660F771F881FBB1F621773078407AA
S1130780BA0720F0621B730B840BBA0BEE1F88F7B9
S1130790E09508950E94D1036894B1110C94AC04BF
S11307A008950E94910488F09F5798F0B92F9927D3
S11307B0B751B0F0E1F0660F771F881F991F1AF048
S11307C0BA95C9F714C0B13091F00E94AB04B1E0FE
S11307D008950C94AB04672F782F8827B85F39F0FD
S11307E0B93FCCF3869577956795B395D9F73EF4E1
S11307F090958095709561957F4F8F4F9F4F089589
S1130800E89409C097FB3EF49095809570956195A6
S11308107F4F8F4F9F4F9923A9F0F92F96E9BB275C
S11308209395F695879577956795B795F111F8CFD8
S1130830FAF4BB0F11F460FF1BC06F5F7F4F8F4F43
S11308409F4F16C0882311F096E911C0772321F039
S11308509EE8872F762F05C0662371F096E8862FD1
S113086070E060E02AF09A95660F771F881FDAF728
S1130870880F9695879597F90895990F0008550F55
S1130880AA0BE0E8FEEF16161706E807F907C0F012
S113089012161306E407F50798F0621B730B840B1A
S11308A0950B39F40A2661F0232B242B252B21F4F4
S11308B008950A2609F4A140A6958FEF811D811D94
S11308C0089597F99F6780E870E060E008959FEFCE
S11308D080EC089500240A941616170618060906D3
S11308E0089500240A9412161306140605060895A2
S11308F0092E0394000C11F4882352F0BB0F40F42A
S1130900BF2B11F460FF04C06F5F7F4F8F4F9F4F69
S1130910089557FD9058440F551F59F05F3F71F0EB
S11309204795880F97FB991F61F09F3F79F0879552
S11309300895121613061406551FF2CF4695F1DFDB
S113094008C0161617061806991FF1CF869571056B
S1130950610508940895E894BB2766277727CB019F
S113096097F908950E94C5040C9478040E946A04BF
S113097038F00E94710420F0952311F00C94610466
S11309800C94670411240C94AC040E94890470F341
S1130990959FC1F3950F50E0551F629FF001729F20
S11309A0BB27F00DB11D639FAA27F00DB11DAA1F2F
S11309B0649F6627B00DA11D661F829F2227B00D7C
S11309C0A11D621F739FB00DA11D621F839FA00D07
S11309D0611D221F749F3327A00D611D231F849F57
S11309E0600D211D822F762F6A2F11249F575040AE
S11309F09AF0F1F088234AF0EE0FFF1FBB1F661F29
S1130A00771F881F91505040A9F79E3F510580F0F1
S1130A100C9461040C94AC045F3FE4F3983ED4F36B
S1130A20869577956795B795F795E7959F5FC1F795
S1130A30FE2B880F911D9695879597F90895FB01D4
S1130A40DC010D900020E9F7119701900D92002030
S1130A50E1F70895BB274A3031F4992322F4BDE22B
S1130A60909581959F4F0C943605BB27FB01552724
S1130A70AA27880F991FAA1FA41710F0A41B8395F7
S1130A805051B9F7A05DAA3308F0A95DA19300976E
S1130A9079F7B111B1931192CB010C944F05DC019C
S1130AA0FC01672F71917723E1F7329704C07C91A1
S1130AB06D9370836291AE17BF07C8F30895F894DD
S1050AC0FFCF62
S1110AC270482D4D657465722056312E30003B
S9030000FC
