:100000000C9434000C943E000C943E000C943E0082
:100010000C943E000C943E000C943E000C943E0068
:100020000C943E000C943E000C943E000C943E0058
:100030000C943E000C943E000C943E000C943E0048
:100040000C943E000C943E000C943E000C943E0038
:100050000C943E000C943E000C943E000C943E0028
:100060000C943E000C943E0011241FBECFEFD8E04C
:10007000DEBFCDBF0E9458000C9465000C940000B8
:10008000EAE7F0E0808187608083808180688083F8
:10009000089580937C00EAE7F0E0808180648083AB
:1000A000808186FDFDCF8091780090917900089540
:1000B000219A0E94400081E00E94490081309240D4
:0E00C00010F0299AF8CF2998F6CFF894FFCFC8
:00000001FF
