S014000070486D657465725F636F64652E7372656341
S11300000C9434000C9449000C9449000C9449005D
S11300100C9449000C9449000C9449000C94490038
S11300200C9449000C9449000C9449000C94490028
S11300300C9449000C9449000C9449000C94490018
S11300400C9449000C9449000C9449000C94490008
S11300500C9449000C9449000C9449000C944900F8
S11300600C9449000C94490011241FBECFEFD8E032
S1130070DEBFCDBF11E0A0E0B1E0E8E4F4E002C0EF
S113008005900D92A630B107D9F70E940D020C9489
S113009022020C940000672B09F050C08A309105AD
S11300A011F4289808958B30910511F42998089536
S11300B08C30910511F42A9808958D30910511F42E
S11300C02B9808958E30910511F42C9808958F3053
S11300D0910511F42D9808958031910511F42E980D
S11300E008958131910511F42F9808958E31910569
S11300F011F4589808958F31910511F45998089581
S11301008032910511F45A9808958132910511F4C1
S11301105B9808958232910511F45C9808958332B6
S1130120910511F45D9808958432910511F45E9857
S11301300895859709F050C05F9808958A30910515
S113014011F4289A08958B30910511F4299A089591
S11301508C30910511F42A9A08958D30910511F48B
S11301602B9A08958E30910511F42C9A08958F30AE
S1130170910511F42D9A08958031910511F42E9A68
S113018008958131910511F42F9A08958E319105C6
S113019011F4589A08958F31910511F4599A0895DC
S11301A08032910511F45A9A08958132910511F41F
S11301B05B9A08958232910511F45C9A0895833212
S11301C0910511F45D9A08958432910511F45E9AB3
S11301D00895859709F45F9A0895CF93C82F80FFF7
S11301E007C061E070E085E290E00E944B0006C029
S11301F060E070E085E290E00E944B00C1FF07C020
S113020061E070E084E290E00E944B0006C060E090
S113021070E084E290E00E944B00C2FF07C061E0FE
S113022070E083E290E00E944B0006C060E070E062
S113023083E290E00E944B00C3FF07C061E070E0DE
S113024082E290E00E944B0006C060E070E082E22F
S113025090E00E944B00C4FF07C061E070E081E2BF
S113026090E00E944B0006C060E070E081E290E004
S11302700E944B00C5FF07C061E070E080E290E09F
S11302800E944B0006C060E070E080E290E00E94B3
S11302904B00C6FF07C061E070E08FE190E00E9470
S11302A04B0006C060E070E08FE190E00E944B00DC
S11302B0CC233CF461E070E08EE190E00E944B00BE
S11302C006C060E070E08EE190E00E944B00CF91A8
S11302D00895CF93C82F60E070E08BE090E00E9417
S11302E04B008C2F0E94ED0061E070E08AE090E00A
S11302F00E944B008FE99FE00197F1F700C00000D6
S113030060E070E08AE090E00E944B008FE99FE09B
S11303100197F1F700C00000CF91089560E070E00C
S11303208BE090E00E944B0060E070E08AE090E097
S11303300E944B002FEF89EF90E0215080409040C5
S1130340E1F700C0000080E30E9469018FE19EE4B0
S11303500197F1F700C0000080E30E9469018FE972
S11303609FE00197F1F700C0000080E30E9469015B
S11303708FE39CE90197F1F700C0000088E30E9435
S113038069018CE00E94690181E00E94690186E0B4
S11303900E9469010895CF93C82F61E070E08BE05B
S11303A090E00E944B008C2F0E94ED0061E070E011
S11303B08AE090E00E944B008FE99FE00197F1F7FB
S11303C000C0000060E070E08AE090E00E944B0012
S11303D08FE99FE00197F1F700C00000CF910895E5
S11303E0CF93DF93EC018881882331F021960E941A
S11303F0CB0189918111FBCFDF91CF910895EAE779
S1130400F0E0808187608083808180688083ECE76E
S1130410F0E08081806C808308958FEF8AB984B97D
S11304200E948E010E94FF0180E80E94690180E021
S113043091E00E94F0018FE39CE90197F1F700C07D
S10B04400000F2CFF894FFCF95
S1090448486F6C61000026
S9030000FC
